{
  "_format": "hh-sol-artifact-1",
  "contractName": "NFT",
  "sourceName": "contracts/NFT.sol",
  "abi": [
    {
      "inputs": [],
      "stateMutability": "nonpayable",
      "type": "constructor"
    },
    {
      "anonymous": false,
      "inputs": [
        {
          "indexed": true,
          "internalType": "address",
          "name": "owner",
          "type": "address"
        },
        {
          "indexed": true,
          "internalType": "address",
          "name": "approved",
          "type": "address"
        },
        {
          "indexed": true,
          "internalType": "uint256",
          "name": "tokenId",
          "type": "uint256"
        }
      ],
      "name": "Approval",
      "type": "event"
    },
    {
      "anonymous": false,
      "inputs": [
        {
          "indexed": true,
          "internalType": "address",
          "name": "owner",
          "type": "address"
        },
        {
          "indexed": true,
          "internalType": "address",
          "name": "operator",
          "type": "address"
        },
        {
          "indexed": false,
          "internalType": "bool",
          "name": "approved",
          "type": "bool"
        }
      ],
      "name": "ApprovalForAll",
      "type": "event"
    },
    {
      "anonymous": false,
      "inputs": [
        {
          "indexed": true,
          "internalType": "address",
          "name": "from",
          "type": "address"
        },
        {
          "indexed": true,
          "internalType": "address",
          "name": "to",
          "type": "address"
        },
        {
          "indexed": true,
          "internalType": "uint256",
          "name": "tokenId",
          "type": "uint256"
        }
      ],
      "name": "Transfer",
      "type": "event"
    },
    {
      "inputs": [
        {
          "internalType": "address",
          "name": "to",
          "type": "address"
        },
        {
          "internalType": "uint256",
          "name": "tokenId",
          "type": "uint256"
        }
      ],
      "name": "approve",
      "outputs": [],
      "stateMutability": "nonpayable",
      "type": "function"
    },
    {
      "inputs": [
        {
          "internalType": "address",
          "name": "owner",
          "type": "address"
        }
      ],
      "name": "balanceOf",
      "outputs": [
        {
          "internalType": "uint256",
          "name": "",
          "type": "uint256"
        }
      ],
      "stateMutability": "view",
      "type": "function"
    },
    {
      "inputs": [],
      "name": "baseTokenURI",
      "outputs": [
        {
          "internalType": "string",
          "name": "",
          "type": "string"
        }
      ],
      "stateMutability": "view",
      "type": "function"
    },
    {
      "inputs": [
        {
          "internalType": "uint256",
          "name": "tokenId",
          "type": "uint256"
        }
      ],
      "name": "getApproved",
      "outputs": [
        {
          "internalType": "address",
          "name": "",
          "type": "address"
        }
      ],
      "stateMutability": "view",
      "type": "function"
    },
    {
      "inputs": [],
      "name": "getCollection",
      "outputs": [
        {
          "internalType": "string",
          "name": "collection",
          "type": "string"
        }
      ],
      "stateMutability": "view",
      "type": "function"
    },
    {
      "inputs": [],
      "name": "getCurrentTokenId",
      "outputs": [
        {
          "internalType": "uint256",
          "name": "tokenid",
          "type": "uint256"
        }
      ],
      "stateMutability": "view",
      "type": "function"
    },
    {
      "inputs": [
        {
          "internalType": "uint256",
          "name": "tokenid",
          "type": "uint256"
        }
      ],
      "name": "getTokenUrl",
      "outputs": [
        {
          "internalType": "string",
          "name": "url",
          "type": "string"
        }
      ],
      "stateMutability": "view",
      "type": "function"
    },
    {
      "inputs": [
        {
          "internalType": "address",
          "name": "owner",
          "type": "address"
        },
        {
          "internalType": "address",
          "name": "operator",
          "type": "address"
        }
      ],
      "name": "isApprovedForAll",
      "outputs": [
        {
          "internalType": "bool",
          "name": "",
          "type": "bool"
        }
      ],
      "stateMutability": "view",
      "type": "function"
    },
    {
      "inputs": [
        {
          "internalType": "address",
          "name": "recipient",
          "type": "address"
        },
        {
          "internalType": "string",
          "name": "metadataURI",
          "type": "string"
        }
      ],
      "name": "mintTo",
      "outputs": [
        {
          "internalType": "uint256",
          "name": "",
          "type": "uint256"
        }
      ],
      "stateMutability": "payable",
      "type": "function"
    },
    {
      "inputs": [],
      "name": "name",
      "outputs": [
        {
          "internalType": "string",
          "name": "",
          "type": "string"
        }
      ],
      "stateMutability": "view",
      "type": "function"
    },
    {
      "inputs": [
        {
          "internalType": "uint256",
          "name": "tokenId",
          "type": "uint256"
        }
      ],
      "name": "ownerOf",
      "outputs": [
        {
          "internalType": "address",
          "name": "",
          "type": "address"
        }
      ],
      "stateMutability": "view",
      "type": "function"
    },
    {
      "inputs": [
        {
          "internalType": "address",
          "name": "from",
          "type": "address"
        },
        {
          "internalType": "address",
          "name": "to",
          "type": "address"
        },
        {
          "internalType": "uint256",
          "name": "tokenId",
          "type": "uint256"
        }
      ],
      "name": "safeTransferFrom",
      "outputs": [],
      "stateMutability": "nonpayable",
      "type": "function"
    },
    {
      "inputs": [
        {
          "internalType": "address",
          "name": "from",
          "type": "address"
        },
        {
          "internalType": "address",
          "name": "to",
          "type": "address"
        },
        {
          "internalType": "uint256",
          "name": "tokenId",
          "type": "uint256"
        },
        {
          "internalType": "bytes",
          "name": "_data",
          "type": "bytes"
        }
      ],
      "name": "safeTransferFrom",
      "outputs": [],
      "stateMutability": "nonpayable",
      "type": "function"
    },
    {
      "inputs": [
        {
          "internalType": "address",
          "name": "operator",
          "type": "address"
        },
        {
          "internalType": "bool",
          "name": "approved",
          "type": "bool"
        }
      ],
      "name": "setApprovalForAll",
      "outputs": [],
      "stateMutability": "nonpayable",
      "type": "function"
    },
    {
      "inputs": [
        {
          "internalType": "string",
          "name": "_baseTokenURI",
          "type": "string"
        }
      ],
      "name": "setBaseTokenURI",
      "outputs": [],
      "stateMutability": "nonpayable",
      "type": "function"
    },
    {
      "inputs": [
        {
          "internalType": "bytes4",
          "name": "interfaceId",
          "type": "bytes4"
        }
      ],
      "name": "supportsInterface",
      "outputs": [
        {
          "internalType": "bool",
          "name": "",
          "type": "bool"
        }
      ],
      "stateMutability": "view",
      "type": "function"
    },
    {
      "inputs": [],
      "name": "symbol",
      "outputs": [
        {
          "internalType": "string",
          "name": "",
          "type": "string"
        }
      ],
      "stateMutability": "view",
      "type": "function"
    },
    {
      "inputs": [
        {
          "internalType": "uint256",
          "name": "tokenId",
          "type": "uint256"
        }
      ],
      "name": "tokenURI",
      "outputs": [
        {
          "internalType": "string",
          "name": "",
          "type": "string"
        }
      ],
      "stateMutability": "view",
      "type": "function"
    },
    {
      "inputs": [
        {
          "internalType": "address",
          "name": "from",
          "type": "address"
        },
        {
          "internalType": "address",
          "name": "to",
          "type": "address"
        },
        {
          "internalType": "uint256",
          "name": "tokenId",
          "type": "uint256"
        }
      ],
      "name": "transferFrom",
      "outputs": [],
      "stateMutability": "nonpayable",
      "type": "function"
    }
  ],
  "bytecode": "0x60806040523480156200001157600080fd5b506040518060400160405280600981526020017f4578697374656e636500000000000000000000000000000000000000000000008152506040518060400160405280600381526020017f49447300000000000000000000000000000000000000000000000000000000008152508160009080519060200190620000969291906200011a565b508060019080519060200190620000af9291906200011a565b505050620000f86040518060400160405280601581526020017f68747470733a2f2f697066732e696f2f697066732f0000000000000000000000815250620000fe60201b60201c565b6200022f565b8060099080519060200190620001169291906200011a565b5050565b8280546200012890620001ca565b90600052602060002090601f0160209004810192826200014c576000855562000198565b82601f106200016757805160ff191683800117855562000198565b8280016001018555821562000198579182015b82811115620001975782518255916020019190600101906200017a565b5b509050620001a79190620001ab565b5090565b5b80821115620001c6576000816000905550600101620001ac565b5090565b60006002820490506001821680620001e357607f821691505b60208210811415620001fa57620001f962000200565b5b50919050565b7f4e487b7100000000000000000000000000000000000000000000000000000000600052602260045260246000fd5b613020806200023f6000396000f3fe6080604052600436106101135760003560e01c806342842e0e116100a0578063a22cb46511610064578063a22cb465146103c9578063b88d4fde146103f2578063c87b56dd1461041b578063d547cfb714610458578063e985e9c51461048357610113565b806342842e0e146102d057806356189236146102f95780636352211e1461032457806370a082311461036157806395d89b411461039e57610113565b8063095ea7b3116100e7578063095ea7b3146101ed5780631d87b5d41461021657806323b872dd1461025357806330176e131461027c5780634251921e146102a557610113565b806275a3171461011857806301ffc9a71461014857806306fdde0314610185578063081812fc146101b0575b600080fd5b610132600480360381019061012d9190612138565b6104c0565b60405161013f9190612bb5565b60405180910390f35b34801561015457600080fd5b5061016f600480360381019061016a91906121c8565b610674565b60405161017c9190612998565b60405180910390f35b34801561019157600080fd5b5061019a610756565b6040516101a791906129b3565b60405180910390f35b3480156101bc57600080fd5b506101d760048036038101906101d2919061225b565b6107e8565b6040516101e49190612931565b60405180910390f35b3480156101f957600080fd5b50610214600480360381019061020f919061218c565b61086d565b005b34801561022257600080fd5b5061023d6004803603810190610238919061225b565b610985565b60405161024a91906129b3565b60405180910390f35b34801561025f57600080fd5b5061027a60048036038101906102759190612032565b610a2a565b005b34801561028857600080fd5b506102a3600480360381019061029e919061221a565b610a8a565b005b3480156102b157600080fd5b506102ba610aa4565b6040516102c791906129b3565b60405180910390f35b3480156102dc57600080fd5b506102f760048036038101906102f29190612032565b610b73565b005b34801561030557600080fd5b5061030e610b93565b60405161031b9190612bb5565b60405180910390f35b34801561033057600080fd5b5061034b6004803603810190610346919061225b565b610ba4565b6040516103589190612931565b60405180910390f35b34801561036d57600080fd5b5061038860048036038101906103839190611fcd565b610c56565b6040516103959190612bb5565b60405180910390f35b3480156103aa57600080fd5b506103b3610d0e565b6040516103c091906129b3565b60405180910390f35b3480156103d557600080fd5b506103f060048036038101906103eb91906120fc565b610da0565b005b3480156103fe57600080fd5b5061041960048036038101906104149190612081565b610db6565b005b34801561042757600080fd5b50610442600480360381019061043d919061225b565b610e18565b60405161044f91906129b3565b60405180910390f35b34801561046457600080fd5b5061046d610f39565b60405161047a91906129b3565b60405180910390f35b34801561048f57600080fd5b506104aa60048036038101906104a59190611ff6565b610fc7565b6040516104b79190612998565b60405180910390f35b6000806104cd600661105b565b90506104d96006611069565b60006104e5600661105b565b90506104f1858261107f565b6104fb818561109d565b6000600860003373ffffffffffffffffffffffffffffffffffffffff1673ffffffffffffffffffffffffffffffffffffffff168152602001908152602001600020805461054790612e15565b80601f016020809104026020016040519081016040528092919081815260200182805461057390612e15565b80156105c05780601f10610595576101008083540402835291602001916105c0565b820191906000526020600020905b8154815290600101906020018083116105a357829003601f168201915b5050505050905060006040518060400160405280600181526020017f2c000000000000000000000000000000000000000000000000000000000000008152509050610614828261060f86611111565b6112be565b600860003373ffffffffffffffffffffffffffffffffffffffff1673ffffffffffffffffffffffffffffffffffffffff1681526020019081526020016000209080519060200190610666929190611df1565b508294505050505092915050565b60007f80ac58cd000000000000000000000000000000000000000000000000000000007bffffffffffffffffffffffffffffffffffffffffffffffffffffffff1916827bffffffffffffffffffffffffffffffffffffffffffffffffffffffff1916148061073f57507f5b5e139f000000000000000000000000000000000000000000000000000000007bffffffffffffffffffffffffffffffffffffffffffffffffffffffff1916827bffffffffffffffffffffffffffffffffffffffffffffffffffffffff1916145b8061074f575061074e826112ed565b5b9050919050565b60606000805461076590612e15565b80601f016020809104026020016040519081016040528092919081815260200182805461079190612e15565b80156107de5780601f106107b3576101008083540402835291602001916107de565b820191906000526020600020905b8154815290600101906020018083116107c157829003601f168201915b5050505050905090565b60006107f382611357565b610832576040517f08c379a000000000000000000000000000000000000000000000000000000000815260040161082990612af5565b60405180910390fd5b6004600083815260200190815260200160002060009054906101000a900473ffffffffffffffffffffffffffffffffffffffff169050919050565b600061087882610ba4565b90508073ffffffffffffffffffffffffffffffffffffffff168373ffffffffffffffffffffffffffffffffffffffff1614156108e9576040517f08c379a00000000000000000000000000000000000000000000000000000000081526004016108e090612b75565b60405180910390fd5b8073ffffffffffffffffffffffffffffffffffffffff166109086113c3565b73ffffffffffffffffffffffffffffffffffffffff1614806109375750610936816109316113c3565b610fc7565b5b610976576040517f08c379a000000000000000000000000000000000000000000000000000000000815260040161096d90612a75565b60405180910390fd5b61098083836113cb565b505050565b60606007600083815260200190815260200160002080546109a590612e15565b80601f01602080910402602001604051908101604052809291908181526020018280546109d190612e15565b8015610a1e5780601f106109f357610100808354040283529160200191610a1e565b820191906000526020600020905b815481529060010190602001808311610a0157829003601f168201915b50505050509050919050565b610a3b610a356113c3565b82611484565b610a7a576040517f08c379a0000000000000000000000000000000000000000000000000000000008152600401610a7190612b95565b60405180910390fd5b610a85838383611562565b505050565b8060099080519060200190610aa0929190611df1565b5050565b6060600860003373ffffffffffffffffffffffffffffffffffffffff1673ffffffffffffffffffffffffffffffffffffffff1681526020019081526020016000208054610af090612e15565b80601f0160208091040260200160405190810160405280929190818152602001828054610b1c90612e15565b8015610b695780601f10610b3e57610100808354040283529160200191610b69565b820191906000526020600020905b815481529060010190602001808311610b4c57829003601f168201915b5050505050905090565b610b8e83838360405180602001604052806000815250610db6565b505050565b6000610b9f600661105b565b905090565b6000806002600084815260200190815260200160002060009054906101000a900473ffffffffffffffffffffffffffffffffffffffff169050600073ffffffffffffffffffffffffffffffffffffffff168173ffffffffffffffffffffffffffffffffffffffff161415610c4d576040517f08c379a0000000000000000000000000000000000000000000000000000000008152600401610c4490612ab5565b60405180910390fd5b80915050919050565b60008073ffffffffffffffffffffffffffffffffffffffff168273ffffffffffffffffffffffffffffffffffffffff161415610cc7576040517f08c379a0000000000000000000000000000000000000000000000000000000008152600401610cbe90612a95565b60405180910390fd5b600360008373ffffffffffffffffffffffffffffffffffffffff1673ffffffffffffffffffffffffffffffffffffffff168152602001908152602001600020549050919050565b606060018054610d1d90612e15565b80601f0160208091040260200160405190810160405280929190818152602001828054610d4990612e15565b8015610d965780601f10610d6b57610100808354040283529160200191610d96565b820191906000526020600020905b815481529060010190602001808311610d7957829003601f168201915b5050505050905090565b610db2610dab6113c3565b83836117be565b5050565b610dc7610dc16113c3565b83611484565b610e06576040517f08c379a0000000000000000000000000000000000000000000000000000000008152600401610dfd90612b95565b60405180910390fd5b610e128484848461192b565b50505050565b6060610e2382611357565b610e62576040517f08c379a0000000000000000000000000000000000000000000000000000000008152600401610e5990612b55565b60405180910390fd5b6000600760008481526020019081526020016000208054610e8290612e15565b80601f0160208091040260200160405190810160405280929190818152602001828054610eae90612e15565b8015610efb5780601f10610ed057610100808354040283529160200191610efb565b820191906000526020600020905b815481529060010190602001808311610ede57829003601f168201915b505050505090506000610f0c611987565b90508082604051602001610f219291906128dc565b60405160208183030381529060405292505050919050565b60098054610f4690612e15565b80601f0160208091040260200160405190810160405280929190818152602001828054610f7290612e15565b8015610fbf5780601f10610f9457610100808354040283529160200191610fbf565b820191906000526020600020905b815481529060010190602001808311610fa257829003601f168201915b505050505081565b6000600560008473ffffffffffffffffffffffffffffffffffffffff1673ffffffffffffffffffffffffffffffffffffffff16815260200190815260200160002060008373ffffffffffffffffffffffffffffffffffffffff1673ffffffffffffffffffffffffffffffffffffffff16815260200190815260200160002060009054906101000a900460ff16905092915050565b600081600001549050919050565b6001816000016000828254019250508190555050565b611099828260405180602001604052806000815250611a19565b5050565b6110a682611357565b6110e5576040517f08c379a00000000000000000000000000000000000000000000000000000000081526004016110dc90612b15565b60405180910390fd5b8060076000848152602001908152602001600020908051906020019061110c929190611df1565b505050565b60606000821415611159576040518060400160405280600181526020017f300000000000000000000000000000000000000000000000000000000000000081525090506112b9565b600082905060005b6000821461118b57808061117490612e47565b915050600a826111849190612cfa565b9150611161565b60008167ffffffffffffffff8111156111cd577f4e487b7100000000000000000000000000000000000000000000000000000000600052604160045260246000fd5b6040519080825280601f01601f1916602001820160405280156111ff5781602001600182028036833780820191505090505b5090505b600085146112b2576001826112189190612d2b565b9150600a856112279190612e90565b60306112339190612ca4565b60f81b81838151811061126f577f4e487b7100000000000000000000000000000000000000000000000000000000600052603260045260246000fd5b60200101907effffffffffffffffffffffffffffffffffffffffffffffffffffffffffffff1916908160001a905350600a856112ab9190612cfa565b9450611203565b8093505050505b919050565b60608383836040516020016112d593929190612900565b60405160208183030381529060405290509392505050565b60007f01ffc9a7000000000000000000000000000000000000000000000000000000007bffffffffffffffffffffffffffffffffffffffffffffffffffffffff1916827bffffffffffffffffffffffffffffffffffffffffffffffffffffffff1916149050919050565b60008073ffffffffffffffffffffffffffffffffffffffff166002600084815260200190815260200160002060009054906101000a900473ffffffffffffffffffffffffffffffffffffffff1673ffffffffffffffffffffffffffffffffffffffff1614159050919050565b600033905090565b816004600083815260200190815260200160002060006101000a81548173ffffffffffffffffffffffffffffffffffffffff021916908373ffffffffffffffffffffffffffffffffffffffff160217905550808273ffffffffffffffffffffffffffffffffffffffff1661143e83610ba4565b73ffffffffffffffffffffffffffffffffffffffff167f8c5be1e5ebec7d5bd14f71427d1e84f3dd0314c0f7b2291e5b200ac8c7c3b92560405160405180910390a45050565b600061148f82611357565b6114ce576040517f08c379a00000000000000000000000000000000000000000000000000000000081526004016114c590612a55565b60405180910390fd5b60006114d983610ba4565b90508073ffffffffffffffffffffffffffffffffffffffff168473ffffffffffffffffffffffffffffffffffffffff16148061154857508373ffffffffffffffffffffffffffffffffffffffff16611530846107e8565b73ffffffffffffffffffffffffffffffffffffffff16145b8061155957506115588185610fc7565b5b91505092915050565b8273ffffffffffffffffffffffffffffffffffffffff1661158282610ba4565b73ffffffffffffffffffffffffffffffffffffffff16146115d8576040517f08c379a00000000000000000000000000000000000000000000000000000000081526004016115cf90612b35565b60405180910390fd5b600073ffffffffffffffffffffffffffffffffffffffff168273ffffffffffffffffffffffffffffffffffffffff161415611648576040517f08c379a000000000000000000000000000000000000000000000000000000000815260040161163f90612a15565b60405180910390fd5b611653838383611a74565b61165e6000826113cb565b6001600360008573ffffffffffffffffffffffffffffffffffffffff1673ffffffffffffffffffffffffffffffffffffffff16815260200190815260200160002060008282546116ae9190612d2b565b925050819055506001600360008473ffffffffffffffffffffffffffffffffffffffff1673ffffffffffffffffffffffffffffffffffffffff16815260200190815260200160002060008282546117059190612ca4565b92505081905550816002600083815260200190815260200160002060006101000a81548173ffffffffffffffffffffffffffffffffffffffff021916908373ffffffffffffffffffffffffffffffffffffffff160217905550808273ffffffffffffffffffffffffffffffffffffffff168473ffffffffffffffffffffffffffffffffffffffff167fddf252ad1be2c89b69c2b068fc378daa952ba7f163c4a11628f55a4df523b3ef60405160405180910390a4505050565b8173ffffffffffffffffffffffffffffffffffffffff168373ffffffffffffffffffffffffffffffffffffffff16141561182d576040517f08c379a000000000000000000000000000000000000000000000000000000000815260040161182490612a35565b60405180910390fd5b80600560008573ffffffffffffffffffffffffffffffffffffffff1673ffffffffffffffffffffffffffffffffffffffff16815260200190815260200160002060008473ffffffffffffffffffffffffffffffffffffffff1673ffffffffffffffffffffffffffffffffffffffff16815260200190815260200160002060006101000a81548160ff0219169083151502179055508173ffffffffffffffffffffffffffffffffffffffff168373ffffffffffffffffffffffffffffffffffffffff167f17307eab39ab6107e8899845ad3d59bd9653f200f220920489ca2b5937696c318360405161191e9190612998565b60405180910390a3505050565b611936848484611562565b61194284848484611a79565b611981576040517f08c379a0000000000000000000000000000000000000000000000000000000008152600401611978906129d5565b60405180910390fd5b50505050565b60606009805461199690612e15565b80601f01602080910402602001604051908101604052809291908181526020018280546119c290612e15565b8015611a0f5780601f106119e457610100808354040283529160200191611a0f565b820191906000526020600020905b8154815290600101906020018083116119f257829003601f168201915b5050505050905090565b611a238383611c10565b611a306000848484611a79565b611a6f576040517f08c379a0000000000000000000000000000000000000000000000000000000008152600401611a66906129d5565b60405180910390fd5b505050565b505050565b6000611a9a8473ffffffffffffffffffffffffffffffffffffffff16611dde565b15611c03578373ffffffffffffffffffffffffffffffffffffffff1663150b7a02611ac36113c3565b8786866040518563ffffffff1660e01b8152600401611ae5949392919061294c565b602060405180830381600087803b158015611aff57600080fd5b505af1925050508015611b3057506040513d601f19601f82011682018060405250810190611b2d91906121f1565b60015b611bb3573d8060008114611b60576040519150601f19603f3d011682016040523d82523d6000602084013e611b65565b606091505b50600081511415611bab576040517f08c379a0000000000000000000000000000000000000000000000000000000008152600401611ba2906129d5565b60405180910390fd5b805181602001fd5b63150b7a0260e01b7bffffffffffffffffffffffffffffffffffffffffffffffffffffffff1916817bffffffffffffffffffffffffffffffffffffffffffffffffffffffff191614915050611c08565b600190505b949350505050565b600073ffffffffffffffffffffffffffffffffffffffff168273ffffffffffffffffffffffffffffffffffffffff161415611c80576040517f08c379a0000000000000000000000000000000000000000000000000000000008152600401611c7790612ad5565b60405180910390fd5b611c8981611357565b15611cc9576040517f08c379a0000000000000000000000000000000000000000000000000000000008152600401611cc0906129f5565b60405180910390fd5b611cd560008383611a74565b6001600360008473ffffffffffffffffffffffffffffffffffffffff1673ffffffffffffffffffffffffffffffffffffffff1681526020019081526020016000206000828254611d259190612ca4565b92505081905550816002600083815260200190815260200160002060006101000a81548173ffffffffffffffffffffffffffffffffffffffff021916908373ffffffffffffffffffffffffffffffffffffffff160217905550808273ffffffffffffffffffffffffffffffffffffffff16600073ffffffffffffffffffffffffffffffffffffffff167fddf252ad1be2c89b69c2b068fc378daa952ba7f163c4a11628f55a4df523b3ef60405160405180910390a45050565b600080823b905060008111915050919050565b828054611dfd90612e15565b90600052602060002090601f016020900481019282611e1f5760008555611e66565b82601f10611e3857805160ff1916838001178555611e66565b82800160010185558215611e66579182015b82811115611e65578251825591602001919060010190611e4a565b5b509050611e739190611e77565b5090565b5b80821115611e90576000816000905550600101611e78565b5090565b6000611ea7611ea284612c01565b612bd0565b905082815260208101848484011115611ebf57600080fd5b611eca848285612dd3565b509392505050565b6000611ee5611ee084612c31565b612bd0565b905082815260208101848484011115611efd57600080fd5b611f08848285612dd3565b509392505050565b600081359050611f1f81612f8e565b92915050565b600081359050611f3481612fa5565b92915050565b600081359050611f4981612fbc565b92915050565b600081519050611f5e81612fbc565b92915050565b600082601f830112611f7557600080fd5b8135611f85848260208601611e94565b91505092915050565b600082601f830112611f9f57600080fd5b8135611faf848260208601611ed2565b91505092915050565b600081359050611fc781612fd3565b92915050565b600060208284031215611fdf57600080fd5b6000611fed84828501611f10565b91505092915050565b6000806040838503121561200957600080fd5b600061201785828601611f10565b925050602061202885828601611f10565b9150509250929050565b60008060006060848603121561204757600080fd5b600061205586828701611f10565b935050602061206686828701611f10565b925050604061207786828701611fb8565b9150509250925092565b6000806000806080858703121561209757600080fd5b60006120a587828801611f10565b94505060206120b687828801611f10565b93505060406120c787828801611fb8565b925050606085013567ffffffffffffffff8111156120e457600080fd5b6120f087828801611f64565b91505092959194509250565b6000806040838503121561210f57600080fd5b600061211d85828601611f10565b925050602061212e85828601611f25565b9150509250929050565b6000806040838503121561214b57600080fd5b600061215985828601611f10565b925050602083013567ffffffffffffffff81111561217657600080fd5b61218285828601611f8e565b9150509250929050565b6000806040838503121561219f57600080fd5b60006121ad85828601611f10565b92505060206121be85828601611fb8565b9150509250929050565b6000602082840312156121da57600080fd5b60006121e884828501611f3a565b91505092915050565b60006020828403121561220357600080fd5b600061221184828501611f4f565b91505092915050565b60006020828403121561222c57600080fd5b600082013567ffffffffffffffff81111561224657600080fd5b61225284828501611f8e565b91505092915050565b60006020828403121561226d57600080fd5b600061227b84828501611fb8565b91505092915050565b61228d81612d5f565b82525050565b61229c81612d71565b82525050565b60006122ad82612c61565b6122b78185612c77565b93506122c7818560208601612de2565b6122d081612f7d565b840191505092915050565b60006122e682612c6c565b6122f08185612c88565b9350612300818560208601612de2565b61230981612f7d565b840191505092915050565b600061231f82612c6c565b6123298185612c99565b9350612339818560208601612de2565b80840191505092915050565b6000612352603283612c88565b91507f4552433732313a207472616e7366657220746f206e6f6e20455243373231526560008301527f63656976657220696d706c656d656e74657200000000000000000000000000006020830152604082019050919050565b60006123b8601c83612c88565b91507f4552433732313a20746f6b656e20616c7265616479206d696e746564000000006000830152602082019050919050565b60006123f8602483612c88565b91507f4552433732313a207472616e7366657220746f20746865207a65726f2061646460008301527f72657373000000000000000000000000000000000000000000000000000000006020830152604082019050919050565b600061245e601983612c88565b91507f4552433732313a20617070726f766520746f2063616c6c6572000000000000006000830152602082019050919050565b600061249e602c83612c88565b91507f4552433732313a206f70657261746f7220717565727920666f72206e6f6e657860008301527f697374656e7420746f6b656e00000000000000000000000000000000000000006020830152604082019050919050565b6000612504603883612c88565b91507f4552433732313a20617070726f76652063616c6c6572206973206e6f74206f7760008301527f6e6572206e6f7220617070726f76656420666f7220616c6c00000000000000006020830152604082019050919050565b600061256a602a83612c88565b91507f4552433732313a2062616c616e636520717565727920666f7220746865207a6560008301527f726f2061646472657373000000000000000000000000000000000000000000006020830152604082019050919050565b60006125d0602983612c88565b91507f4552433732313a206f776e657220717565727920666f72206e6f6e657869737460008301527f656e7420746f6b656e00000000000000000000000000000000000000000000006020830152604082019050919050565b6000612636602083612c88565b91507f4552433732313a206d696e7420746f20746865207a65726f20616464726573736000830152602082019050919050565b6000612676602c83612c88565b91507f4552433732313a20617070726f76656420717565727920666f72206e6f6e657860008301527f697374656e7420746f6b656e00000000000000000000000000000000000000006020830152604082019050919050565b60006126dc602c83612c88565b91507f4552433732314d657461646174613a2055524920736574206f66206e6f6e657860008301527f697374656e7420746f6b656e00000000000000000000000000000000000000006020830152604082019050919050565b6000612742602983612c88565b91507f4552433732313a207472616e73666572206f6620746f6b656e2074686174206960008301527f73206e6f74206f776e00000000000000000000000000000000000000000000006020830152604082019050919050565b60006127a8602f83612c88565b91507f4552433732314d657461646174613a2055524920717565727920666f72206e6f60008301527f6e6578697374656e7420746f6b656e00000000000000000000000000000000006020830152604082019050919050565b600061280e602183612c88565b91507f4552433732313a20617070726f76616c20746f2063757272656e74206f776e6560008301527f72000000000000000000000000000000000000000000000000000000000000006020830152604082019050919050565b6000612874603183612c88565b91507f4552433732313a207472616e736665722063616c6c6572206973206e6f74206f60008301527f776e6572206e6f7220617070726f7665640000000000000000000000000000006020830152604082019050919050565b6128d681612dc9565b82525050565b60006128e88285612314565b91506128f48284612314565b91508190509392505050565b600061290c8286612314565b91506129188285612314565b91506129248284612314565b9150819050949350505050565b60006020820190506129466000830184612284565b92915050565b60006080820190506129616000830187612284565b61296e6020830186612284565b61297b60408301856128cd565b818103606083015261298d81846122a2565b905095945050505050565b60006020820190506129ad6000830184612293565b92915050565b600060208201905081810360008301526129cd81846122db565b905092915050565b600060208201905081810360008301526129ee81612345565b9050919050565b60006020820190508181036000830152612a0e816123ab565b9050919050565b60006020820190508181036000830152612a2e816123eb565b9050919050565b60006020820190508181036000830152612a4e81612451565b9050919050565b60006020820190508181036000830152612a6e81612491565b9050919050565b60006020820190508181036000830152612a8e816124f7565b9050919050565b60006020820190508181036000830152612aae8161255d565b9050919050565b60006020820190508181036000830152612ace816125c3565b9050919050565b60006020820190508181036000830152612aee81612629565b9050919050565b60006020820190508181036000830152612b0e81612669565b9050919050565b60006020820190508181036000830152612b2e816126cf565b9050919050565b60006020820190508181036000830152612b4e81612735565b9050919050565b60006020820190508181036000830152612b6e8161279b565b9050919050565b60006020820190508181036000830152612b8e81612801565b9050919050565b60006020820190508181036000830152612bae81612867565b9050919050565b6000602082019050612bca60008301846128cd565b92915050565b6000604051905081810181811067ffffffffffffffff82111715612bf757612bf6612f4e565b5b8060405250919050565b600067ffffffffffffffff821115612c1c57612c1b612f4e565b5b601f19601f8301169050602081019050919050565b600067ffffffffffffffff821115612c4c57612c4b612f4e565b5b601f19601f8301169050602081019050919050565b600081519050919050565b600081519050919050565b600082825260208201905092915050565b600082825260208201905092915050565b600081905092915050565b6000612caf82612dc9565b9150612cba83612dc9565b9250827fffffffffffffffffffffffffffffffffffffffffffffffffffffffffffffffff03821115612cef57612cee612ec1565b5b828201905092915050565b6000612d0582612dc9565b9150612d1083612dc9565b925082612d2057612d1f612ef0565b5b828204905092915050565b6000612d3682612dc9565b9150612d4183612dc9565b925082821015612d5457612d53612ec1565b5b828203905092915050565b6000612d6a82612da9565b9050919050565b60008115159050919050565b60007fffffffff0000000000000000000000000000000000000000000000000000000082169050919050565b600073ffffffffffffffffffffffffffffffffffffffff82169050919050565b6000819050919050565b82818337600083830152505050565b60005b83811015612e00578082015181840152602081019050612de5565b83811115612e0f576000848401525b50505050565b60006002820490506001821680612e2d57607f821691505b60208210811415612e4157612e40612f1f565b5b50919050565b6000612e5282612dc9565b91507fffffffffffffffffffffffffffffffffffffffffffffffffffffffffffffffff821415612e8557612e84612ec1565b5b600182019050919050565b6000612e9b82612dc9565b9150612ea683612dc9565b925082612eb657612eb5612ef0565b5b828206905092915050565b7f4e487b7100000000000000000000000000000000000000000000000000000000600052601160045260246000fd5b7f4e487b7100000000000000000000000000000000000000000000000000000000600052601260045260246000fd5b7f4e487b7100000000000000000000000000000000000000000000000000000000600052602260045260246000fd5b7f4e487b7100000000000000000000000000000000000000000000000000000000600052604160045260246000fd5b6000601f19601f8301169050919050565b612f9781612d5f565b8114612fa257600080fd5b50565b612fae81612d71565b8114612fb957600080fd5b50565b612fc581612d7d565b8114612fd057600080fd5b50565b612fdc81612dc9565b8114612fe757600080fd5b5056fea26469706673582212203beb8c4c0ae673705c3c18fdb1e11c643a618cc985cc4d79de96e01c60509fa764736f6c63430008000033",
  "linkReferences": {},
  "deployedLinkReferences": {}
}